:020000040800F2
:1000000090080020BD010008652500085121000866
:1000100061250008150500089D2500080000000066
:100020000000000000000000000000006D25000836
:100030001905000800000000692500087125000866
:10004000D7010008D7010008D7010008D701000830
:10005000D7010008D7010008D7010008D701000820
:10006000D7010008D7010008D7010008D701000810
:10007000D7010008D7010008D7010008D701000800
:10008000D7010008D7010008D7010008D7010008F0
:10009000D7010008D7010008D7010008D7010008E0
:1000A000D7010008D7010008D7010008D7010008D0
:1000B000D7010008D7010008D7010008D7010008C0
:1000C000D7010008D7010008D7010008D7010008B0
:1000D000D7010008D7010008D7010008D7010008A0
:1000E000D7010008D7010008D701000800F002F886
:1000F00000F055F814A696E8000CB244B344DA4573
:1001000001D100F04CF8BAE80F000FA696E83000D5
:10011000A5EB040504EB0607AAEB0704A7F101070A
:100120004FEA15154FEA3414A4F10104AC4201D38F
:1001300000F035F813F0010F18BFFB1A43F001036C
:1001400000F001F8DBE71847F44400001445000014
:10015000103A24BF78C878C1FAD8520724BF30C8F3
:1001600030C144BF04680C60704700007047000055
:100170000023002400250026103A28BF78C1FBD8B0
:10018000520728BF30C148BF0B607047642900F098
:100190004980002070471FB51FBD10B510BD00F08D
:1001A0007EF91146FFF7F7FF02F07AFE00F09CF9A6
:1001B00003B4FFF7F2FF03BC00F0A4F9094880473D
:1001C00009480047FEE7FEE7FEE7FEE7FEE7FEE739
:1001D000FEE7FEE7FEE7FEE704480549054A064B51
:1001E0007047000099250008ED00000890020020EB
:1001F0009008002090040020900400200FB41CB54B
:10020000074B06AA7B4469460090059800F02FF939
:100210000020694600F03EF91CBC5DF814FB0000AC
:100220008D0200002DE9F041064600241068752972
:10023000314616A510D0AFF30080002802DA404204
:1002400013A507E031688A0701D512A502E0490726
:1002500004D511A5012401E0AFF3008000210A229A
:1002600006F1240709E0B0FBF2FCB0FBF2F302FB5D
:100270001C00303078541846491C0028F3D123461E
:100280002A463046BDE8F04100F092B80000000078
:100290002D0000002B000000200000002DE9F04799
:1002A0004FF0000A89460446C0F820A02046E168C5
:1002B0008847002876D0252806D0D4E90121904728
:1002C000206A401C2062F1E7E1682046002588474B
:1002D000C4F81CA006460027C4F818A02A2E09D08E
:1002E000304603F0D9FE38B304EB8708303EC8F837
:1002F000186019E059F8041B204604EB870291614D
:10030000E1688847012F064618D1E069002820DA05
:1003100025F020051DE0D8F8180000EB800006EB62
:1003200040003038C8F818002046E1688847064683
:1003300003F0B2FE0028EED1012F0AD02E2E08D1F4
:100340002046E16888477F1C0646022F45F02005BD
:10035000C4DBA069002803DA404245F00105A06132
:10036000E80701D025F01005B6B1A6F14100192823
:1003700002D8203645F400654A46314620462560BD
:100380004D46FFF703FF58B1012806D0ED1D25F0BB
:10039000070000F1080989E704E005F1040985E791
:1003A00030468AE7206ABDE8F0877047704770479B
:1003B0002DE9F0470D4699469246044600F124087F
:1003C0000168880604D5E06921F01001216000E091
:1003D0000120A84201DD471B00E00027A1697A192E
:1003E00002EB0900081AA0612078C00602D420465A
:1003F000AFF30080002608E0D4E901211AF80600D6
:100400009047206A401C761C20624E45F4DB207821
:10041000C0060AD52046AFF3008006E0D4E90121EA
:1004200030209047206A401C2062381EA7F1010747
:10043000F4DC07E0D4E9012118F805009047206AB0
:10044000401C2062281EA5F10105F3DC2046AFF315
:1004500000802078000602D50220BDE8F087012048
:10046000FBE7000001694A1C02610878704700B58B
:100470008FB0CDE901310021059105497944CDE9DD
:10048000031011466846FFF709FF0FB000BD0000DA
:10049000E5FFFFFF0A6802F8010B0A607047754626
:1004A00000F02CF8AE4605006946534620F00700E0
:1004B000854618B020B5FFF78FFEBDE820404FF00D
:1004C00000064FF000074FF000084FF0000BAC465D
:1004D000ACE8C009ACE8C009ACE8C009ACE8C009A8
:1004E00021F007018D46704710B50446AFF3008038
:1004F0002046BDE81040FFF75BBE00000048704793
:100500003000002001491820ABBEFEE726000200A3
:1005100070470000FEE700007047000041F6401100
:10052000C0F2010148434EF21001CEF200014860D2
:10053000002088600720086070470000EFF31080FB
:1005400072B600BFFEE700002DE9F04F82B00E68E2
:10055000002E00F0FF8040F20C4C40F2004E41F2C1
:100560000042C4F2010CC4F2010EC4F201020427DD
:10057000002401234FF0000A4FF00009904208BF09
:100580000327009742E000BF012704F00C030F226D
:100590009A402BEA020207FA03F34FEA9A051A433C
:1005A00046F825204E68F203DEF8002054BF22EA08
:1005B000080242EA0802CEF80020DEF80420B30365
:1005C00054BF22EA080242EA0802CEF80420F302ED
:1005D000DEF8082054BF22EA080242EA0802B30209
:1005E000CEF80820DCF800204FF0010354BF22EAC7
:1005F000080242EA0802CCF800200E680AF1010A5B
:1006000036FA0AF204F1040400F0A48003FA0AFBAB
:1006100016EA0B08F1D04E684FF6FF72C1F21002D5
:10062000964211DC122E55D8DFE806F0340A444811
:10063000545454545454545454545454544C5000DA
:10064000D1F80C9046E000BF4FF6FF72C1F22102D4
:1006500096420FDC0022C1F2110296421AD000220B
:10066000C1F21202964215D00022C1F22102964236
:1006700010D02FE00022C1F2220296420AD00022BE
:10068000C1F23102964205D00022C1F232029642F6
:1006900020D100BF8A684AB1012A14BFC0F814B043
:1006A000C0F810B04FF0080914E000BF4FF0040983
:1006B00010E000BFCA6802F108090BE04FF0000922
:1006C00008E000BFCA6802F1040903E0CA6802F149
:1006D0000C0900BF22460646B8F5807F24BF203AA9
:1006E000043637680F25954027EA050509FA02F216
:1006F0002A433260CA79D2067FF57FAF41F21803F0
:10070000C4F202031A68AEF57E7642F001021A6066
:100710001A6802F001020192019A2AF0030256F8C7
:1007200002B040F60002C4F20102904210D040F63E
:100730000042C4F2010290423FF426AF41F20002AF
:10074000C4F20102009F904208BF02271DE700BFCC
:1007500000271AE702B0BDE8F08F0000C26802EA85
:100760000103914341EA034101617047002A08BF38
:10077000090401617047000040F28C20C2F20000C1
:1007800000687047002804BF01207047F0B581B0B1
:10079000044690F83D0028B9002084F83C0020462B
:1007A00000F0BCFA242084F83D002068016821F0A4
:1007B00001010160016841F400410160016821F418
:1007C0000041016000F060FC636848F2A16CC0F277
:1007D000010C40F60011C0F23D0163453CBF48F2F8
:1007E0008041C0F21E01884202D2012001B0F0BD5A
:1007F0004DF68361C4F21B31A0FB01122168970CF6
:10080000D1F804E04FF496762EF03F0545EA924584
:100810004D60774348F638160D6AC0F24106A7FBD3
:10082000067625F03F07634538BF960C721C3A43A5
:100830000A62CA6948F2A0664CF6FF77C0F2010668
:10084000B34222EA07020BD801385B00B0FBF3F099
:1008500001306FF31F30042898BF04201BE000BF55
:10086000A768013857B119277B43B0FBF3F001307B
:100870006FF31F3070B100F5804007E003EB4303D6
:10088000B0FBF3F001306FF31F3018B100F50040FA
:1008900001E000BF01201043C8610868D4E90723C4
:1008A00020F0C000104318430860886848F2FF3207
:1008B00004F10C0790438CCF18431043A66988605D
:1008C000C86820F0FF0038433043C860086840F033
:1008D0000100086000202021206484F83D1020637E
:1008E00084F83E0001B0F0BD2DE9F04381B01F4611
:1008F000164688460446FFF73FFF94F83D1020292E
:1009000020D1054620688169890717D5FFF734FF94
:10091000401B1928F6D900202021206384F83D10BF
:1009200084F83E00216C022641F02001216484F805
:100930003C00304601B0BDE8F08300BF94F83C10A5
:10094000012905D10226304601B0BDE8F08300BF81
:10095000012184F83C100168C90703D1016841F006
:1009600001010160016821F400610160212184F826
:100970003D10102184F83E100021216466626785D5
:10098000618D21850021CFF6FF71E162E16A11F5E9
:10099000803F18BF012919D1016841F480710160BD
:1009A0004169DDF82090C90723D119F1010116D062
:1009B000B9F1000F48D000BFFFF7DEFE401B4845ED
:1009C00044D820684169C907F6D012E00829E3D06D
:1009D000216B1229E0D0E3E74169C90709D14169D8
:1009E000C90706D14169C90704BF41695FEAC171FE
:1009F000F2D02169B1F5804F02D1FE215DE000BF48
:100A0000062101EAD811F03101614169090753D487
:100A1000416919F101024FEA415131D0002900F139
:100A20008380B9F1000F00F03981FFF7A5FE401B6C
:100A3000484500F235812068416909073CD4416985
:100A40004905F2D570E000BFFFF796FE0020202197
:100A5000206384F83D1084F83E00216C012641F0AB
:100A600020012164216884F83C000868C00544BF67
:100A70004FF400702064304601B0BDE8F08300BF41
:100A8000002951D44169090716D4416949054BD45D
:100A90004169090710D44169490545D441690907ED
:100AA0000AD4416949053FD44169090704D4416921
:100AB0004905E7D538E000BFFF2101EA08010161DF
:100AC000416989073AD4416919F101022AD04905DF
:100AD0002AD4B9F1000F00F0E180FFF74DFE401B72
:100AE000484500F2DD8020684169890726D44169C4
:100AF0004905F2D518E000BF416989071ED4416954
:100B0000490511D44169890718D4416949050BD4B5
:100B10004169890712D44169490505D441698907AA
:100B20000CD441694905E7D5016841F400710160C1
:100B30006FF4806141610420B3E000BF002600969D
:100B400041690091816900910099218D002900F08F
:100B5000958009F10108014651F8142F120635D489
:100B6000B8F1000F16D0B9F1000F00F0AB8000BF54
:100B70000868400500F1AE80FFF7FEFD401B4845C8
:100B800000F2A5802068014651F8142F1206EFD517
:100B90001CE000BF0A68520500F19C800A6812063A
:100BA00014D40A68520500F195800A6812060DD423
:100BB0000A68520500F18E800A68120606D40A6897
:100BC000520500F187800A681206E3D5636A194668
:100BD00011F8012B02616162618D01396185278DF8
:100BE0000146A7F1010CA4F828C051F8142F5207B0
:100BF0000DD55FEA0C420AD05A78A7F1020C0261C7
:100C00009A1C6262628D013A6285A4F828C00A6863
:100C100052072FD4B8F1000F14D0B9F1000F51D002
:100C20000868400556D4FFF7A7FD401B48454ED83D
:100C30002068014651F8142F5207F1D5B4F828C0A6
:100C400018E000BF0A68520544D40A68520711D45C
:100C50000A6852053ED40A6852070BD40A68520546
:100C600038D40A68520705D40A68520532D40A6893
:100C70005207E7D55FEA0C417FF46DAF016841F49C
:100C800000710160202084F83D0084F83E6084F803
:100C90003C60304601B0BDE8F08300BFFFF76CFD5B
:100CA000202000212022216384F83D2084F83E107A
:100CB000226C01261043206484F83C10304601B0B9
:100CC000BDE8F0830868400504D4FFF755FD2020F7
:100CD00004E000BF6FF4806008600420002120223F
:100CE000216384F83D2084F83E10226C1043206478
:100CF00084F83C10206C04280AD120680126016881
:100D000041F400710160304601B0BDE8F08300BFDE
:100D10000126304601B0BDE8F083000010B586B072
:100D2000006845F20042C4F20002002190420491A2
:100D300002D006B010BD00BF41F21804C4F2020494
:100D4000206802A940F008002060206800F0080038
:100D5000019001984FF440700290122003900320FC
:100D6000059040F60040C4F20100FFF7EDFB0420BF
:100D7000C4F20100016841F0E06141F0020101604C
:100D8000606840F400106060606800F4001001903A
:100D9000019806B010BD000080B542F20000C4F218
:100DA0000200016841F010010160032000F07AF8B0
:100DB0000F2000F005F800F027F8002080BD0000AB
:100DC00070B540F21C06C2F2000640F224013278EF
:100DD000C2F200014FF47A730968B3FBF2F20446E1
:100DE000B1FBF2F1084600F077FB0F2C4FF0010544
:100DF00008D838B94FF0FF3021460022002500F016
:100E000025F87460284670BD82B041F21800C4F223
:100E100002000168022241F001010160016801F055
:100E2000010101910199416841F0805141604068A0
:100E300000F08050009000980420C4F20100016886
:100E400062F31A61016002B07047000010B54EF6FF
:100E50000C5CCEF2000CDCF80030C3F3022E8EF0F6
:100E60000704042C28BF0424BEF103034FF0FF3E07
:100E70000EFA04F438BF0023A14399400EFA03F39D
:100E80009A43114300F00F0200F160430901043A54
:100E900003F564436244002848BF02F10C03197053
:100EA00010BD00004EF60C51CEF200010A684FF65C
:100EB000FF031A4060F30A2242F0806040F0FD70A8
:100EC00008607047002804BF012070472DE9F043F7
:100ED00081B042F20008C4F202080446D8F80000CB
:100EE0000D4600F0070088420CD2D8F8000020F030
:100EF00007002843C8F80000D8F8000000F00700F9
:100F0000A8426CD1206841F204098107C4F20209A9
:100F100017D5410705D5D9F8001041F4E061C9F8AB
:100F20000010010705D5D9F8001041F46051C9F847
:100F30000010D9F80010A26821F0F0011143C9F89F
:100F40000010C00742D1D8F8000000F00700A84206
:100F50000CD9D8F8000020F007002843C8F800009A
:100F6000D8F8000000F00700A84238D120684107F7
:100F700007D5D9F80010E26821F4E0611143C9F8FF
:100F80000010000708D5D9F80000216920F460504E
:100F900040EAC100C9F80000D9F8002002F00C00B6
:100FA000082841F20020C0F27A0051D144F24053A7
:100FB000C2F38341C0F60003595CD2033CD440F62F
:100FC0000010C0F23D00484342E000BF60680228C4
:100FD0000AD001282AD159F8041C890308D4012019
:100FE00001B0BDE8F08300BF59F8041C8901F6D5B3
:100FF000D9F8001021F003010843C9F80000FFF7F9
:10100000BBFB064641F28837D9F80000616800F062
:101010000C00B0EB810F96D0FFF7AEFB801BB842FF
:10102000F2D9032001B0BDE8F08300BF59F8041CD9
:101030008907D4D5DCE700BFD9F8002044F2265355
:10104000C2F34042C0F600039A5C4843B0FBF2F0A2
:10105000D9F8001044F22852C1F30311C0F600027F
:10106000515C40F2240220FA01F140F22000C2F269
:1010700000000068C2F200021160FFF7A1FE00202C
:1010800001B0BDE8F083000040F2240041F2040109
:10109000C2F20000C4F202010068096844F238524A
:1010A000C1F30221C0F60002515CC8407047000045
:1010B00040F2240041F20401C2F20000C4F2020135
:1010C0000068096844F23852C1F3C221C0F6000238
:1010D000515CC84070470000002804BF01207047E1
:1010E0002DE9F04182B00446007841F20006C007C5
:1010F000C4F202060CD0706800F00C00042840F026
:1011000081803068800303D56068002800F04E813C
:10111000207880071BD5706810F00C0F09D070681C
:1011200000F00C00082840F08B807068C00300F1CC
:1011300087803068800703D52069012840F0368118
:101140003068616920F0F80040EAC1003060207822
:10115000000713D4207840072CD4E569002D00F057
:101160002081706800F00C00082840F0AF80012D4D
:1011700040F00C81012002B0BDE8F081A069002898
:1011800000F08C800020C4F242200121C0F88014BD
:10119000FFF7F2FA054600BF706A800700F1BA80D7
:1011A000FFF7EAFA401B0228F6D9032002B0BDE897
:1011B000F08100BFF0695FEAC00808D4F06940F030
:1011C0008050F061F06900F080500090009847F284
:1011D0000007C4F200073868C0054DD4386840F4F1
:1011E00080703860FFF7C8FA054600BF3868C00550
:1011F00042D4FFF7C1FA401B6428F7D9032002B09C
:10120000BDE8F081706800F00C00082803D1706818
:10121000C0033FF576AF6068002800F00981B0F5A3
:10122000A02F00F01D81B0F5803F00F01D813068D7
:1012300020F480303060306820F4802017E100BF57
:101240002069002840F20000C4F2422000F08C80A7
:1012500001210160FFF790FA054600BF3068800762
:101260003FF56EAFFFF788FA401B0228F6D903203E
:1012700002B0BDE8F08100BFE068002800F09A806D
:10128000052800F0B180012800F0B280306A20F01B
:1012900001003062306A20F00400ACE00020C4F2AB
:1012A00042200021C0F88014FFF766FA054600BF0F
:1012B000706A80077FF54EAFFFF75EFA401B022889
:1012C000F6D9032002B0BDE8F08100BF0027C4F2C8
:1012D000422700203866FFF74FFA022D05460DD150
:1012E0003068800140F1D680FFF746FA401B0228A3
:1012F0004FF00300F4D902B0BDE8F08130688001FE
:101300004FD5FFF739FA401B02284FF00300F5D9FB
:10131000F1E700BF40F22400C2F20000006844F68A
:10132000D351C1F26201A0FB0101480A019000BF44
:1013300000BF0198411E002801913FF40BAF00BF90
:101340000198411E002801913FF404AF00BF0198AD
:10135000411E002801913FF4FDAE00BF0198411EDF
:1013600000280191E4D1F5E600210160FFF704FABD
:10137000054600BF306880077FF5E9AEFFF7FCF94E
:10138000401B02284FF00300F4D9B4E77068216ACB
:1013900000F480328A4209D1616A00F470108842F8
:1013A00004D1002002B0BDE8F08100BF012002B0EE
:1013B000BDE8F081306A20F001003062306A20F030
:1013C00004003062FFF7D8F9054641F2883700BFC4
:1013D000306A800722D5FFF7CFF9401BB8424FF0A3
:1013E0000300F5D987E700BF306A40F0040030629F
:1013F000306A40F001003062FFF7BEF9054641F265
:10140000883700BF306A800708D4FFF7B5F9401B62
:10141000B842F7D9032002B0BDE8F081B8F1000F5F
:101420003FF59BAEF06920F08050F06195E600BF7B
:10143000306820F480303060306820F480203060E4
:10144000FFF79AF9054600BF306880037FF560AE6C
:10145000FFF792F9401B64284FF00300F4D94AE7E4
:10146000306840F480203060306840F48030306074
:10147000FFF782F9054600BF306880033FF548AEAC
:10148000FFF77AF9401B6428F6D9032002B0BDE8C3
:10149000F08100BF206AB0F5803F05D17168A26875
:1014A00021F40031114371607168626A21F4741192
:1014B00011430843706001203866FFF75DF9044668
:1014C000306880013FF56DAFFFF756F9001B022829
:1014D0004FF00300F4D90EE7411E0020B0EB116F6E
:1014E0001CBF012070474EF21002CEF20002516084
:1014F0004EF62351CEF20001F0230B7007219060CD
:101500001160704790F83C20012A4FF0020236D05B
:1015100010B580F83D200268D2F804E0D2F808C087
:101520000C682EF07003234340F2FF74C4F20004F1
:10153000A24253600ADCB2F1804F13D040F2004364
:10154000C4F200039A420DD011E000BF42F60043FE
:10155000C4F201039A4205D040F60003C4F200032E
:101560009A4204D149682CF080031943916001210B
:10157000002280F83D1080F83C20BDE81040104665
:1015800070470000002804BF0120704710B50446D2
:1015900090F83D0028B9002084F83C00204600F077
:1015A00067F8022084F83D00206840F2FF7302686B
:1015B000C4F2000342F6004C9842C4F2010C15DC60
:1015C000B0F1804F1AD040F20041C4F200018842CD
:1015D00014D0984218DCB0F1804F1DD040F2004189
:1015E000C4F20001884217D01AE000BF604505D060
:1015F00040F60001C4F200018842EAD1A16822F05D
:1016000070020A439842E6DD604505D040F60001CD
:10161000C4F20001884203D1216922F440720A43D6
:10162000A36922F08001D4F804E0E2681943604520
:101630000160C262C0F828E002D16169CCF83010C4
:1016400001214161002084F8461084F83E1084F89E
:101650003F1084F8401084F8411084F8421084F858
:10166000431084F8441084F8451084F83D1010BDF0
:1016700082B0006840F20041C4F20001884215D0F7
:1016800042F60041C4F2010188421CD141F2180027
:10169000C4F20200016841F400610160006800F4D6
:1016A00000600190019802B0704700BF41F218003D
:1016B000C4F20200416841F002014160406800F05C
:1016C00002000090009802B07047000090F83D10B2
:1016D00001291CBF01207047022180F83D100068DD
:1016E00040F2FF71C4F20001884209DCB0F1804F82
:1016F00012D040F20041C4F2000188420CD012E046
:1017000042F60041C4F20101884205D040F60001D2
:10171000C4F20001884206D1816801F00701062960
:1017200004BF00207047016841F001010160002002
:101730007047000090F83C20012A4FF0020200F0B0
:10174000C28080B580F83D20D0F800C04FF6777297
:10175000DCF8083023EA0202CCF808200B683F2BA3
:101760001CDD5F2B20DD602B50D0B3F5005F6DD00A
:10177000702B40F0A080D1E901E3C968DCF80820B3
:1017800043EA0E0322F47F4243EA01211143CCF8DD
:101790000810DCF8081041F077018AE01F2B29DCE3
:1017A00063B3102B2AD086E0402B63D0502B40F03F
:1017B0008280D1F804E0C968DCF82030DCF8202011
:1017C00022F00102CCF82020DCF8182022F0F002F0
:1017D00042EA011123F00A0242EA0E02CCF8181084
:1017E000CCF82020DCF8081041F0570121F020014E
:1017F0005FE000BF202B01D0302B5CD1DCF808105B
:1018000021F07001194341F0070152E0D1F804E0E2
:10181000C968DCF8203023F01003CCF82030DCF865
:101820001830DCF8202023F4704322F0A00243EAB1
:10183000013142EA0E12CCF81810CCF82020DCF866
:10184000081041F0670121F0100132E0D1E901E315
:10185000C968DCF8082043EA0E0322F47F4243EA19
:1018600001211143CCF80810DCF8081041F4804144
:101870001FE000BFD1F804E0C968DCF82030DCF8D4
:10188000202022F00102CCF82020DCF8182022F0E1
:10189000F00242EA011123F00A0242EA0E02CCF8F9
:1018A0001810CCF82020DCF8081041F0470121F096
:1018B0003001CCF808100121002280F83D1080F89A
:1018C0003C20BDE88040104670470000002804BF5F
:1018D000012070472DE9F04F81B0044690F83D009B
:1018E0000D4628B9002084F83C00204600F094F80A
:1018F000022084F83D00206844F20702816840F22B
:10190000FF73914381600268C4F2000342F6004C09
:101910009842C4F2010C15DCB0F1804F1AD040F2AD
:101920000041C4F20001884214D0984218DCB0F1A2
:10193000804F1DD040F20041C4F20001884217D010
:101940001AE000BF604505D040F60001C4F2000176
:101950008842EAD1A16822F070020A439842E6DD8B
:10196000604505D040F60001C4F20001884203D171
:10197000216922F440720A43A36922F08001D4F85D
:1019800004E0E268194360450160C262C0F828E0E3
:1019900002D16169CCF830104FF00109C0F8149001
:1019A0008268D0F818E0D0F820C0D5E90038D5E931
:1019B000027B43EA020AAB694FF6FF712EEA010E81
:1019C00047EA03234FF6FC47BB43D5E907724BEACE
:1019D0000E012E69194341EA072141EA061141EA45
:1019E00002312CF022026B6942EA080242EA031239
:1019F000C0F808A08161026284F8469084F83E90A5
:101A000084F83F9084F8429084F8439084F83D90A5
:101A1000002001B0BDE8F08F80B586B0006840F6C8
:101A20000001C4F2000188424FF00001CDE9041129
:101A3000CDE902111ED0B0F1804F40D141F2180023
:101A4000C4F20200416841F001014160416801F0C7
:101A5000010101910199016841F0040101600068F0
:101A6000032100F004000190019840F60000C4F248
:101A700001001CE041F21800C4F20200416841F08C
:101A800004014160416801F004010191019901687C
:101A900041F0080101600068C02100F008000190D9
:101AA000019840F60000C4F2010000F58060029148
:101AB000002103910121049102A9FEF745FD06B022
:101AC00080BD000080B590F83E2090F83F3090F83F
:101AD00042E090F843C004290AD0B9B9012A4FF076
:101AE000010208BFBEF1010F34D0104680BD00BF17
:101AF000012B4FF0010208BFBCF1010FF5D102210B
:101B000080F83F1080F8431000681EE0012A4FF073
:101B1000010208BF012BE8D1BEF1010FE5D1BCF1F4
:101B2000010FE2D1022280F83E2080F83F2080F8A9
:101B3000422080F8432091B10068016A21F0010140
:101B40000162016A41F00101016210216FF010028F
:101B500009E000BF022180F83E1080F842100068C2
:101B600001216FF00102036A1A400262026A114306
:101B700001620168002241F001010160104680BD50
:101B800090F83C30012B04BF022070474FEAB202AC
:101B9000032A00F2EA802DE9F043DFE802F0033B7C
:101BA00077B100BF036842F600461A6AC4F2010624
:101BB00022F001021A621D6A1A465C6852F818CFB8
:101BC000B3428E68D1F800E025F0020545EA06052B
:101BD0000CD1CE68D1E9057824F4407425F00C05C9
:101BE00026F004063C43354344EA08042CF073070E
:101BF00047EA0E075C609F614F6809695F631D6279
:101C00009F6947F008079F619F6927F004079F615C
:101C1000A6E000BF036842F600461A6AC4F2010655
:101C200022F010021A621D6A1A46D3F804C052F854
:101C3000184FB3428E68D1F800E025F0200545EA40
:101C400006150FD1CE68D1E905986FF0400725F051
:101C5000C00507EA061635432CF4406748EA090632
:101C600047EA860C24F4E64444EA0E27C3F804C08D
:101C70009F614F6809699F631D629F6947F4006710
:101C80009F619F6927F480679F6168E0036842F65F
:101C900000461A6AC4F2010622F480721A621D6AB2
:101CA0001A46D3F804C052F81CEFB3428E680C6891
:101CB00025F4007545EA06250FD1CE68D1E90598CF
:101CC000360240F2FF4725F44065BE4335432CF40D
:101CD000405748EA090647EA061C2EF073072743D7
:101CE000C3F804C0DF614F680969DF631D62DF6903
:101CF00047F00807DF61DF6927F00407DF612FE0A5
:101D0000036842F600471A6AC4F2010722F48052BF
:101D10001A621A46D3F820C05D6852F81C4FD1F8F9
:101D200000E08E68BB4204D14F6925F4804545EA46
:101D300087152CF4005747EA063724F4E64646EAAE
:101D40000E265D60DE614E6809691E641F62DF69F0
:101D500047F40067DF61DF6927F48067DF6109020C
:101D6000136819431160BDE8F043002180F83C106E
:101D700008467047002804BF0120704710B504468C
:101D800090F83D0028B9002084F83C00204600F07F
:101D900067F8022084F83D00206840F2FF73026873
:101DA000C4F2000342F6004C9842C4F2010C15DC68
:101DB000B0F1804F1AD040F20041C4F200018842D5
:101DC00014D0984218DCB0F1804F1DD040F2004191
:101DD000C4F20001884217D01AE000BF604505D068
:101DE00040F60001C4F200018842EAD1A16822F065
:101DF00070020A439842E6DD604505D040F60001D6
:101E0000C4F20001884203D1216922F440720A43DE
:101E1000A36922F08001D4F804E0E2681943604528
:101E20000160C262C0F828E002D16169CCF83010CC
:101E300001214161002084F8461084F83E1084F8A6
:101E40003F1084F8401084F8411084F8421084F860
:101E5000431084F8441084F8451084F83D1010BDF8
:101E60007047000041B1082910D0042914BF00F1C7
:101E7000410200F13F020BE090F83E20012A1CBF16
:101E800001207047022280F83E2013E000F140025A
:101E90001278012A1CBF012070470222082907D0AE
:101EA000042914BF80F8412080F83F2002E000BFE1
:101EB00080F84020006801F01F010122036A8A4077
:101EC00023EA02010162036A42F64441C4F20101BD
:101ED0001A43A1F14403984202620FD040F2FF710D
:101EE000C4F20001884213DCB0F1804F1CD040F2F4
:101EF0000041C4F20001884216D01AE00A6842F498
:101F000000420A6040F2FF71C4F200018842EBDD3A
:101F100042F60041C4F20101884205D040F60001BA
:101F2000C4F20001884204D1816801F0070106294A
:101F300003D0016841F001010160002070470000FA
:101F400080B5026801F01F0C012303FA0CFE136A2E
:101F500042F6444C23EA0E03C4F2010C1362D2F899
:101F600020E0ACF144039A42C2F820E013D15CF8BF
:101F700024EC41F211131EEA030F0CD1D2F820E039
:101F800040F244431EEA030F05D1DCF8003023F48D
:101F90000043CCF80030D2F820C041F211131CEA03
:101FA000030F06D1D2F820C040F244431CEA030FCD
:101FB00014D0082918D004290AD000294FF00101B3
:101FC00014BF80F8411080F83E10002080BD00BF93
:101FD000012180F83F10002080BD00BF136823F06E
:101FE000010313600829E6D1012180F84010002088
:101FF00080BD0000002804BF0120704710B50446D2
:1020000090F83D0028B9002084F83C00204600F0FC
:1020100061F8242084F83D002068D4E90212C368E6
:1020200023F40053C360036923F440531A4302614D
:10203000D4E904231143C268194341F20C639A4363
:102040001143C1604169A26921F44071114343F613
:102050000002C4F201029042416103D0FFF714F87C
:1020600002E000BFFFF724F8D4E900231921484318
:102070009900B0FBF1F048F21F5CC5F2EB1CA0FB2D
:102080000C314FF69C734909C0F6FF7301FB030046
:10209000322303EB0010A0FB0C03F02000EA5310E6
:1020A00000EB0110C3F34311084490601069202134
:1020B00020F490401061506920F02A005061D068EF
:1020C00040F40050D0600020206484F83D1084F873
:1020D0003E1010BD70B586B040F60004C4F2010495
:1020E000006804F5405100268842049602D006B0EC
:1020F00070BD00BF41F21800C4F20200016802ADD9
:1021000041F480410160016801F48041019101992D
:10211000016841F0040101600068294600F00400F4
:10212000019001984FF40070029002200390032068
:1021300005902046FEF708FA4FF48060CDE90206CC
:10214000204629460496FEF7FFF906B070BD000050
:10215000FEE700002DE9F04F85B041F21800C4F20F
:102160000200016840F6000841F0100101600168BA
:10217000C4F2010801F0100101910199016808F50C
:10218000006741F0200101600168002201F0200198
:102190000191019901684FF4005541F0040101607B
:1021A00001684FF0000901F00401019101990168F3
:1021B00041F00801016000684FF4005100F0080090
:1021C000019001983846FEF7D1FA40464C21002292
:1021D0004FF04C0AFEF7CAFA08F580663046012136
:1021E00000220124FEF7C2FACDE9015401AD4FF0FF
:1021F000020B38462946CDF80C90CDF810B0FEF70A
:10220000A3F940462946CDE901A4CDE9039BFEF799
:102210009BF930462946CDE90144CDE9039BFEF701
:1022200093F94FF47040CDE90109304629460394F3
:10223000FEF78AF94FF48070CDE90109404629463E
:102240000394FEF781F94FF40060CDE9010940469F
:102250002946CDF80C90FEF777F905B0BDE8F08F70
:1022600080B540F2D40045F20041C2F20000C4F251
:10227000000148F2A06200234FF4804CC0F201023A
:1022800080E80E00C0E9033CC0E90533C0E907332C
:10229000FEF778FA002808BF80BDBDE88040FEF751
:1022A0004DB9000080B586B040F2281042F60042D9
:1022B0000021C2F20000C4F2010247234FF6FF7C66
:1022C0000591CDE90311CDE90011C0E90023C0E972
:1022D000021CC0E904118161FFF754F9002818BFFE
:1022E000FEF72CF94FF48050029040F22810C2F211
:1022F000000002A9FFF71EFA002818BFFEF71EF91A
:1023000040F22810C2F200006946FFF7FBF80028EF
:1023100018BFFEF713F906B080BD000080B58CB081
:1023200040F270100021C2F200004FF080424FF6E0
:10233000FF73C0E900210122CDE90011C0E90213B9
:1023400001618161CDE90321CDE90521CDE90711C5
:10235000CDE909210B9103A9FFF7B8FA002818BFAE
:10236000FEF7ECF840F27010C2F200006946FFF789
:10237000C9F8002818BFFEF7E1F80CB080BD0000D6
:1023800070B594B040F2004540F2B810C4F20005B8
:102390000021C2F2000002224FF47A630E91CDE9CF
:1023A0000C110991CDE90711CDE90511CDE9031112
:1023B000CDE90111C0E90052C0E902130161816158
:1023C000FFF7E0F8002818BFFEF7B8F84FF4805088
:1023D0000B9040F2B810C2F200000BA9FFF7AAF967
:1023E000002818BFFEF7AAF840F2B810C2F20000A9
:1023F000FFF7C0FC002818BFFEF7A0F840F2B810A5
:102400000024C2F2000008A9CDE90844FFF77AF8D9
:10241000002818BFFEF792F860200190C820CDE98F
:10242000020440F2B810C2F2000001A9042205948F
:10243000FFF7A6FB002818BFFEF780F840F2B8149B
:10244000C2F2000401A920460C22FFF799FB0028E4
:1024500018BFFEF773F820680021A842129101D03E
:1024600014B070BD41F21800C4F20200016810AC53
:1024700041F0040101600168022601F004010F919E
:102480000F99016841F0080101600068214600F0E1
:1024900008000F900F988020109005F5823011965B
:1024A0001396FEF751F805F584302146CDE9106604
:1024B0001396FEF749F814B070BD000080B58CB0DB
:1024C00040F2002040F600020021C2F20000C4F2F7
:1024D00000024FF6FF73C0E900210122CDE900118F
:1024E000C0E9021301618161CDE90321CDE9052134
:1024F000CDE90711CDE909210B9103A9FFF7E6F911
:10250000002818BFFEF71AF840F20020C2F20000BF
:102510006946FEF7F7FF002818BFFEF70FF80CB06A
:1025200080BD000080B540F2482043F60001C2F2B1
:102530000000C4F2010100234FF00C0C4FF4E13213
:1025400080E80E00C0E90333C0E905C3C361FFF7AB
:1025500051FD002808BF80BDBDE88040FDF7EEBFFB
:10256000FEE70000FEE70000704700007047000033
:1025700040F20020C2F20000006840F27011406A90
:10258000C2F2000140F290020968C2F20002D0805B
:10259000486A10817047000070470000FEE70000A5
:1025A00010B540F60804C4F201042068C00500F12B
:1025B0008F800A2000F010FA2068C00500F18880A2
:1025C0002068C00509D42068C0055CBF20685FEAA8
:1025D000C05002D42068C005F2D540F29004C2F287
:1025E00000042079002808BF10BD00F019FB2079F5
:1025F000A169012808BF002905D100F0A7FA2079B8
:10260000A16901382071C2B2022A08BF002913D083
:102610006189032A08BF012905D101F09FF82079BB
:10262000618901382071C2B2032A08BF02290BD088
:10263000C2B2042A13D019E000F0EEFF2079002185
:1026400001382071618111E001F088F820796189F9
:102650000138013920716181C2B2042A06D189B2E0
:10266000022903D10320207111E000BFC2B2A16989
:10267000012A08BF012905D100F068FA2079A16973
:1026800001382071C2B2022A08BF012908D0C1B2A4
:1026900003290CD1A189012909D1022011E000BF31
:1026A00000F0BAFF2079002101382071A181C2B267
:1026B000A169012A08BF022905D100F047FA207953
:1026C0000138A1692071C0B2022808BF022901D0D7
:1026D00010BD00BF00F0A0FF20790138207100205C
:1026E000E08110BDF0B581B040F61004C4F20104E1
:1026F0004FF480204FF47A5508264FF400272060CD
:102700003020266000F00CFA3020276000F008FA34
:10271000013DF5D1322000F05FF904204FF47A55E5
:1027200008264FF4002720603020266000F0F8F9DA
:102730003020276000F0F4F9013DF5D101B0F0BD83
:10274000B0B540F60844C4F2010401F01FFA206855
:10275000400446D40A2000F03FF92068400440D4E9
:102760002068400409D4206840045CBF20685FEA08
:10277000404002D420684004F2D540F29000C2F2FA
:102780000000406A03282CD8DFE800F00210205A2D
:1027900040F20000C2F2000081680B29D8BF0B2173
:1027A0000A398160206800041ED56CE040F2000008
:1027B000C2F20000C168A1F10A02A129B8BF9622A5
:1027C000C260206800040FD55DE000BF40F2000049
:1027D000C2F200000169A1F10A021529B8BF0A225C
:1027E0000261206800044ED40A2000F0F5F8206849
:1027F000000448D42068000409D4206800045CBFA9
:1028000020685FEA004002D420680004F2D540F25C
:102810009000C2F20000406A032834D8DFE800F0DC
:1028200002202C6240F20000C2F2000081684A1CC3
:102830000029C8BF022282602068800426D574E087
:1028400040F20000C2F200004169A1F10A020B2926
:10285000B8BF0022426120680004C5D513E000BF64
:1028600040F20000C2F20000C1680131C16020687E
:1028700080040BD559E000BF40F20000C2F2000016
:10288000016901310161206880044ED40A2000F002
:10289000A3F82068800448D42068800409D4206804
:1028A00080045CBF20685FEA804002D42068800416
:1028B000F2D540F29000C2F20000406A032834D8FA
:1028C000DFE800F0021C242C40F20000C2F20000FD
:1028D000816801F10A0211F1090FC8BF022282606A
:1028E00023E000BF40F20000C2F200004169013164
:1028F000416120688004C9D517E000BF40F20000A4
:10290000C2F20000C1680A31C1600EE040F200006E
:10291000C2F2000001690A31016106E040F20000E4
:10292000C2F2000041690A3141614FF60045CFF61D
:10293000FF756059C0054DD40A2000F04DF860596C
:10294000C00547D46059C00509D46059C0055CBFB3
:1029500060595FEAC05002D46059C005F2D540F218
:102960009000C2F20000406A032888BFB0BDDFE8D3
:1029700000F0030F1B2700BF40F20000C2F200006E
:1029800081680229D8BF022101398160B0BD00BF32
:1029900040F20000C2F20000C1684A1E9829B8BF88
:1029A0009622C260B0BD00BF40F20000C2F200003B
:1029B00001694A1E0C29B8BF0A220261B0BD00BFDE
:1029C00040F20000C2F2000041694A1E0229B8BF6D
:1029D00000224261B0BD0000002808BF704780B5EA
:1029E00040F22811C2F200010968042800F0030C2B
:1029F00030D2BCF1000F2AD000204862486AC008DB
:102A00007C280BD8486AC0087C2807D8486AC008C8
:102A10007C2803D8486AB0F57A7FEFD3BCF1010F68
:102A200015D00020486200BF486AC0087C280BD837
:102A3000486AC0087C2807D8486AC0087C2803D8A0
:102A4000486AB0F57A7FEFD3BCF1020F54D1BDE8EC
:102A50008040704720F0030E0023002203E000BFF7
:102A600004327245C5D04B62486AC0087C280BD836
:102A7000486AC0087C2807D8486AC0087C2803D860
:102A8000486AB0F57A7FEFD34B6200BF486AC0084E
:102A90007C280BD8486AC0087C2807D8486AC00838
:102AA0007C2803D8486AB0F57A7FEFD34B6200BF29
:102AB000486AC0087C280BD8486AC0087C2807D818
:102AC000486AC0087C2803D8486AB0F57A7FEFD3FB
:102AD0004B6200BF486AC0087C28C1D8486AC00859
:102AE0007C28BDD8486AC0087C28B9D8486AB0F5A7
:102AF0007A7FEFD3B4E700BF00204862486AC0087D
:102B00007C28A4D8486AC0087C28A0D8486AC00895
:102B10007C289CD8486AB0F57A7FEFD397E700000D
:102B200040F22811C2F20001096800224A6206E060
:102B30004A6A824228BF70474A6A824205D24A6A7C
:102B4000824202D24A6A8242F2D3704710B5002014
:102B5000002100F01BF944F2E950C0F6000000F03B
:102B60006FF940F29004C2F200042069012807D1F5
:102B70000120002100F00AF916A000F061F9206997
:102B800030B90120002100F001F917A000F058F938
:102B90000220002100F0FAF818A000F051F9626953
:102BA000283444F23461C0F600012046FDF726FBCC
:102BB000204600F045F9A42000F020F913A000F011
:102BC0003FF90320002100F0E1F812A0BDE8104019
:102BD00000F036B95452414E472054484149204DE7
:102BE00041593A20424154005452414E47205448E2
:102BF0004149204D41593A2054415400534C2048FA
:102C000049454E205441493A200000002064617932
:102C1000000000003E54484F4E4720534F00000034
:102C20002DE9F04184B040F60C0040F2D404C0F627
:102C30000C00C2F2000402904FF0640802AA204681
:102C40007E210423CDF80080FDF74EFE42F62D17BD
:102C5000C0F60D1703AD642620467E212A460423C4
:102C60000397CDF80080FDF73FFE013EF4D104B09C
:102C7000BDE8F08170B582B03220FFF7ADFE40F2C2
:102C8000D40443F63C06C2F20004C0F60C066425E8
:102C900001AA20467E21042301960095FDF724FE1B
:102CA0000520FFF799FE01AA20467E210423019604
:102CB0000095FDF719FE0120FFF78EFE01AA2046C0
:102CC0007E21042301960095FDF70EFE0A20FFF7F2
:102CD00083FE42F62C00C0F60C00019001AA2046AB
:102CE0007E2104230095FDF7FFFD0A20FFF774FE07
:102CF00042F62C00C8F68C00019001AA20467E21E5
:102D000004230095FDF7F0FD0120FFF765FE40F676
:102D10000C00C8F68C00019001AA20467E210423F5
:102D20000095FDF7E1FD0120FFF756FE40F60C008F
:102D3000C1F61C00019001AA20467E2104230095C3
:102D4000FDF7D2FD0120FFF747FE0120FFF744FE0B
:102D500040F60C00C6F66C00019001AA20467E21C8
:102D600004230095FDF7C0FD0120FFF735FE40F676
:102D70000C00CCF6CC00019001AA20467E21042351
:102D80000095FDF7B1FD02B070BD0000032811D819
:102D9000DFE800F002060A0E41F080010AE000BF01
:102DA00041F0C00106E000BF41F0940102E000BF25
:102DB00041F0D40180B582B021F00F00090100F18B
:102DC0000C0208308DF8050001F10C008DF80600AA
:102DD00001F108008DF8070040F2D4008DF80420BE
:102DE0004FF0640CC2F2000001AA7E210423CDF84A
:102DF00000C0FDF779FD02B080BD000080B582B053
:102E000000F0F001000101F10C0208318DF805100D
:102E100000F10C0108308DF8070040F2D4008DF865
:102E200004208DF806104FF0640CC2F2000001AAD5
:102E30007E210423CDF800C0FDF756FD02B080BD11
:102E40000178002908BF7047F0B583B040F2D40480
:102E5000461E6427C2F2000402AD00BF21F00F003D
:102E6000090100F10D0209308DF8090001F10D0092
:102E70008DF80A0001F109008DF808208DF80B008B
:102E800020467E212A4604230097FDF72DFDB178C8
:102E900001360029E2D103B0BDE8F04070470000E0
:102EA00090B0FDF779FF00240120CDE90B44CDE976
:102EB000094406900A904FF4E0104FF48031022547
:102EC0000F9006A8CDE90714CDE90D51FEF704F9DE
:102ED00020B1EFF3108072B6FEE700BF0F20CDE9FE
:102EE00001054FF48060CDE9040401A80221039498
:102EF000FDF7E8FF20B1EFF3108072B6FEE700BFE8
:102F000040F60844C4F20104FFF724F9FFF7CAF9B8
:102F1000FFF704FAFFF734FAFFF704FBFFF7CEFAE6
:102F2000FFF79EF940F22810C2F20000FEF7CEFB38
:102F300040F20020C2F200000421FEF7C3FD40F27F
:102F40007010C2F200000421FEF7BCFDFFF792FEF4
:102F5000FFF766FE002002210025FFF717FF0FF2A2
:102F60008060FFF76DFF01200221FFF70FFF0FF2D6
:102F70008060FFF765FF02200021FFF707FF44F2A2
:102F80007450C0F60000FFF75BFF03200221FFF73B
:102F9000FDFE0FF27060FFF753FF4FF4FA70FFF77A
:102FA0001BFDFFF7D3FD04F57E704FF400510122A5
:102FB0000090FDF7DBFB0120FDF7B0FA4FF4FA407B
:102FC00000F0A8FF4FF4FA4000F0ACFF40F2900987
:102FD00040F2000840F2B81AC2F20009C2F200083A
:102FE000C2F2000A4FF0000B89F8015002E000BF66
:102FF00099F801B0D8E90306D8F8187001F00AF979
:103000000146384601F01EF901F04DF801F0E6F8EE
:10301000A8F80200304601F0FDF80146384601F0FC
:1030200011F901F040F801F0D9F8A8F80400B8F857
:103030000800D9F8101040F2DC52424399F8000021
:103040000129A8F8002008BFBBF1010F00F0A880FB
:1030500005281DD14FF60840CFF6FF704FF48001D0
:10306000215050460421FEF7FDFEB8F80200B9F8E1
:10307000081047F658721044884209D84FF4FA40B5
:1030800000F050FF50460421FEF75AFF89F8005027
:10309000D9F8100030B199F8030078B10128A7D110
:1030A0004DE200BF50460C21FEF74AFF5046042176
:1030B000FEF746FF99F803000028EFD199F80400C5
:1030C000002808BFFFF742FD00F034FCFFF768FA64
:1030D000206840042ED40A20FFF77EFC20684004BC
:1030E00028D42068400409D4206840045CBF2068CC
:1030F0005FEA404002D420684004F2D599F8040009
:1031000001280BD1D9F81800411C012888BF0021E3
:10311000C9F8181000F080FA99F80400D9F81810CE
:10312000022808BF002900F08381022808BF012976
:1031300000F090812068800400F1B6810A20FFF73A
:103140004BFC2068800400F1AF812068800409D422
:10315000206880045CBF20685FEA804002D4206859
:103160008004F2D599F8040001280BD1D9F8180091
:10317000411E002808BF0221C9F8181000F04CFABF
:1031800099F80400D9F81810022808BF002900F0A7
:103190006F81022808BF012940F086817AE100BFD3
:1031A00060B1012848D0022800F08180032800F097
:1031B000C18004287FF44CAFF7E000BF4FF48030AB
:1031C000A06050460C21FEF74DFE4FF60840CFF6AA
:1031D000FF704FF48001215050460421FEF742FE5B
:1031E000B8F80400B9F8061000F5FA40884205D98D
:1031F00099F800000128D6D11EE000BF50460C21EE
:10320000FEF79EFE50460421FEF79AFE4FF4FA4068
:1032100000F080FE4FF4FA4000F084FE40F22800F7
:10322000C2F200000088B8F80010401A80B200F026
:1032300019FF012089F800000120A06050460C21F0
:10324000FEF710FE4FF60840CFF6FF7040212150E8
:1032500050460421FEF706FEB9F8060047F69D41E8
:1032600088421FD250460C21FEF76AFE4FF4FA4006
:1032700000F050FE50460421FEF762FE4FF4FA4083
:1032800000F050FE40F22800C2F200000088B8F8BA
:103290000010401A80B200F0CBFE022089F8000036
:1032A00005E000BF99F8000002287FF47FAF4FF4DB
:1032B0008030A06050460C21FEF7D4FD4FF6084048
:1032C000CFF6FF704FF48001215050460421FEF7E5
:1032D000C9FDB8F80200B8F80410B9F80620A0EB50
:1032E000410047F664510844904205DD99F800001A
:1032F00003287FF45EAF1DE04FF4FA4000F00AFEB1
:103300004FF4FA4000F00EFE50460C21FEF718FE76
:1033100050460421FEF714FE40F22800C2F20000DD
:103320000088B8F80010401A80B200F09BFE03201D
:1033300089F800000120A06050460C21FEF792FDA4
:103340004FF60840CFF6FF7040212150504604212F
:10335000FEF788FDB9F8060047F69D4188421FD266
:103360004FF4FA4000F0D6FD4FF4FA4000F0DAFDD9
:1033700050460C21FEF7E4FD50460421FEF7E0FD27
:1033800040F22800C2F200000088B8F80010401A8D
:1033900080B200F04DFE042089F8000005E000BF77
:1033A00099F8000004287FF453AE4FF48030A060F9
:1033B00050460C21FEF756FD4FF60840CFF6FF7041
:1033C0004FF48001215050460421FEF74BFDB8F820
:1033D0000400B9F8061047F69C421044884203D90D
:1033E00099F8000034E600BF4FF4FA4000F092FD77
:1033F0004FF4FA4000F096FD50460C21FEF7A0FD78
:1034000050460421FEF79CFDFFF76CF9D9F8140033
:10341000D8F8141001308842C9F814007FF436AE91
:103420000520C9F8105089F8025089F8000011E60B
:10343000D9F81C00B0FA80F04009C9F81C0000F06F
:103440008DF999F80400D9F81810022808BF01294D
:103450007FF470AED9F82000B0FA80F04009C9F8C6
:10346000200000F0E5F9206880047FF567AE1BE0DE
:10347000D9F81C00411E002808BF0121C9F81C1002
:1034800000F06CF999F80400D9F81810022808BF68
:10349000012909D1D9F82000411E002808BF0121C7
:1034A000C9F8201000F0C4F92068C00442D40A20F2
:1034B000FFF792FA2068C0043CD420684FF600471A
:1034C000C0044FF48076CFF6FF771BD42068000449
:1034D00006D5E059C00544BF20685FEA40400DD4DE
:1034E000A9F80360C9F81850FFF79AFB00F094F8A8
:1034F000A9F80C502068C004E8D503E020688004D7
:10350000EED5F7E7D9F82400D9F8101001300328D8
:1035100088BF0020C9F8240061B999F8010048B9B2
:1035200000F0D2FC00984FF40051FDF717F901208C
:1035300089F8010099F8030001287FF459ADFFF7DD
:10354000FFF82068C0043FF553AD0A20FFF744FAA6
:103550002068C0043FF54CAD20684FF60047C0041A
:103560004FF48076CFF6FF771CD400BF20680004AC
:1035700006D5E059C00544BF20685FEA40400DD43D
:10358000A9F80360C9F81850FFF74AFB00F044F8A7
:10359000A9F80C502068C004E8D503E02068800436
:1035A000EED5F7E7D9F82400D9F810100130032838
:1035B00088BF00200029C9F824007FF419AD99F8CC
:1035C000010000287FF414AD00F07EFC00984FF459
:1035D0000051FDF7C3F8012089F8010008E500BF9C
:1035E00044414920484F432043414E2054484F0016
:1035F0005452554F4E472042414348204B484F417B
:10360000000000004D4159204341542054554F546F
:10361000204441590000000010B540F29004C2F26D
:103620000004A069002851D0012825D100200021E4
:10363000FFF7ACFB44F2E850C0F60000FFF700FCD7
:1036400001200021FFF7A2FB44F22760C0F6000032
:10365000FFF7F6FB02200021FFF798FB34A0FFF7ED
:10366000EFFB03200021FFF791FB44F2AC50C0F6C2
:103670000000FFF7E5FBA069022818BF10BD00207D
:103680000021FFF783FB44F2E850C0F60000FFF78B
:10369000D7FB01200021FFF779FB44F22760C0F639
:1036A0000000FFF7CDFB02200021FFF76FFB44F283
:1036B000D650C0F60000FFF7C3FB03200021FFF740
:1036C00065FB20A0BDE81040FFF7BABB0020002139
:1036D000FFF75CFB44F2E850C0F60000FFF7B0FBD8
:1036E00001200021FFF752FB0DA0FFF7A9FB0220EC
:1036F0000021FFF74BFB44F2D650C0F60000FFF765
:103700009FFB03200021FFF741FB44F2AC50C0F6C1
:103710000000FFF795FBA069012887D0ACE700BF48
:103720003E4241542F544154204D41590000000065
:103730003E434149204441542054484F4E47205372
:103740004F0000003E58454D2054484F4E472053EF
:103750004F204441204341490000000010B540F291
:103760009004C2F20004E06910BB00200021FFF7C2
:103770000DFB44F2E950C0F60000FFF761FB0120A9
:103780000021FFF703FB44F27450C0F60000FFF77E
:1037900057FB02200021FFF7F9FA19A0FFF750FBB1
:1037A00003200021FFF7F2FA18A0FFF749FBE069B8
:1037B000012818BF10BD00200021FFF7E7FA44F2EE
:1037C000E950C0F60000FFF73BFB01200021FFF7A6
:1037D000DDFA44F27450C0F60000FFF731FB02201E
:1037E0000021FFF7D3FA0CA0FFF72AFB03200021EA
:1037F000FFF7CCFA0BA0BDE81040FFF721BB00BFDC
:103800003E424154204D4159000000002054415493
:10381000204D41590000000020424154204D4159A3
:10382000000000003E544154204D4159000000006A
:1038300010B540F29004C2F20004206A10BB0020D0
:103840000021FFF7A3FA44F21360C0F60000FFF76F
:10385000F7FA01200021FFF799FA44F2C150C0F6AF
:103860000000FFF7EDFA02200021FFF78FFA19A000
:10387000FFF7E6FA03200021FFF788FA1BA0FFF705
:10388000DFFA206A012818BF10BD00200021FFF7D1
:103890007DFA44F21360C0F60000FFF7D1FA012070
:1038A0000021FFF773FA44F2C150C0F60000FFF7A1
:1038B000C7FA02200021FFF769FA12A0FFF7C0FA49
:1038C00003200021FFF762FA14A0BDE81040FFF7C3
:1038D000B7BA00BF3E434F202020202020202020C8
:1038E000202020202020202000000000204B484FD6
:1038F0004E47202020202020202020202020202073
:103900000000000020434F202020202020202020E5
:103910002020202020202020000000003E4B484F87
:103920004E47202020202020202020202020202042
:1039300000000000B0B540F60844C4F2010420685D
:10394000000400F1A3800A20FFF746F82068000475
:1039500048BFB0BD2068000409D4206800045CBFE3
:1039600020685FEA004002D420680004F2D5FFF727
:1039700057F940F29004C2F200042179481C2071EA
:1039800021B1C1B2022907D014E000BFFFF744FE05
:103990002079C1B202290DD1A16959B90020E06195
:1039A000FFF7DCFE6089411C20796181C2B2032AE5
:1039B00004D00AE06189C2B2032A06D18AB2012A80
:1039C00003D100F065F820796189C2B2042A07D1D9
:1039D00089B2012904D10320207100F059F820791F
:1039E000C0B2022810D1A06901280DD1A189206997
:1039F0000131A18120B1012806D1FFF719FF03E0B1
:103A00000120E070FEF79CFE2079A189032808BF01
:103A1000012911D02079042808BF01291AD00228D1
:103A200025D1A169022922D100F084FAE089411C44
:103A30002079E1811CE000BF206A012101280DD01E
:103A40000028E7D1002020610120E07000F09EF8FE
:103A5000A189DFE70320E189207109E000252171B8
:103A6000A561FFF7D9FD2079A5810228D9D0E18988
:103A7000032807D189B2012904D10220207100F066
:103A800059FA2079042824BF03202071B0BD00001A
:103A900070B540F29004C2F20004E06901282DD014
:103AA000002852D1657800200021FFF76FF944F219
:103AB000E950C0F60000FFF7C3F9012000210126FC
:103AC000FFF764F944F27450C0F60000FFF7B8F94C
:103AD00002200021FFF75AF9012D37D144F2FD50A1
:103AE000C0F60000FFF7ACF9A0782661002818BFE7
:103AF00070BD002060610120A07070BD0020002119
:103B00000025FFF743F944F2E950C0F60000FFF743
:103B100097F901200021FFF739F944F27450C0F6FB
:103B20000000FFF78DF902200021FFF72FF944F282
:103B30000860C0F60000FFF783F941F21000C4F2FC
:103B400001004FF400512561016070BD05A0FFF731
:103B500077F903200021FFF719F907A0BDE87040AD
:103B6000FFF76EB92020202043485541205345548B
:103B70002044414F202020002020565549204C4F02
:103B80004E47205345542044414F2000F0B581B0AA
:103B900040F29006C2F20006706A002800F0B88079
:103BA000012800F00E81022855D100200021FFF7E6
:103BB000EDF844F28850C0F60000FFF741F940F2FA
:103BC0000007C2F2000744F23464BA6806F12D051A
:103BD000C0F6000428462146FCF710FB2846FFF7F4
:103BE0002FF901200021FFF7D1F844F26250C0F60E
:103BF0000000FFF725F9FA6806F13205284621464C
:103C0000FCF7FCFA2846FFF71BF902200021FFF71A
:103C1000BDF8A3A0FFF714F93A6906F13705284665
:103C20002146FCF7EBFA2846FFF70AF903200021AA
:103C3000FFF7ACF844F25050C0F60000FFF700F96F
:103C40007A6906F13C0528462146FCF7D7FA284652
:103C5000FFF7F6F8706A03281CBF01B0F0BD002022
:103C60000021FFF793F844F28850C0F60000FFF7F8
:103C7000E7F840F20007C2F2000744F23464BA6881
:103C800006F12D05C0F6000428462146FCF7B6FAD9
:103C90002846FFF7D5F801200021FFF777F844F216
:103CA0006250C0F60000FFF7CBF8FA6806F1320563
:103CB00028462146FCF7A2FA2846FFF7C1F8022061
:103CC0000021FFF763F844F29A50C0F60000FFF7B6
:103CD000B7F83A6906F1370528462146FCF78EFA0F
:103CE0002846FFF7ADF803200021FFF74FF871A039
:103CF000FFF7A6F87A6906F13C0528462146FCF74D
:103D00007DFA284601B0BDE8F040FFF799B800BF42
:103D100000200021FFF73AF857A0FFF791F840F292
:103D20000007C2F2000744F23464BA6806F12D05B8
:103D3000C0F6000428462146FCF760FA2846FFF743
:103D40007FF801200021FFF721F844F26250C0F60D
:103D50000000FFF775F8FA6806F13205284621469B
:103D6000FCF74CFA2846FFF76BF802200021FFF71A
:103D70000DF844F29A50C0F60000FFF761F83A6976
:103D800006F1370528462146FCF738FA2846FFF7A2
:103D900057F803200021FEF7F9FF44F25050C0F617
:103DA0000000FFF74DF87A6906F13C0528462146E8
:103DB000FCF724FA2846FFF743F8706A01287FF4DD
:103DC000F2AE00200021FEF7E1FF44F28850C0F679
:103DD0000000FFF735F840F20007C2F2000744F296
:103DE0003464BA6806F12D05C0F600042846214661
:103DF000FCF704FA2846FFF723F801200021FEF71C
:103E0000C5FF22A0FFF71CF8FA6806F13205284624
:103E10002146FCF7F3F92846FFF712F802200021AB
:103E2000FEF7B4FF44F29A50C0F60000FFF708F81E
:103E30003A6906F1370528462146FCF7DFF928469E
:103E4000FEF7FEFF03200021FEF7A0FF44F25050D2
:103E5000C0F60000FEF7F4FF7A6906F13C0528463B
:103E60002146FCF7CBF92846FEF7EAFF706A0228E4
:103E70003FF49BAEEFE600BF3E444B204C4F492041
:103E8000444159204449454E200000003E444F2003
:103E90004441492044415920202020202000000096
:103EA0003E444F20444149204441552054554F54ED
:103EB000200000003E534F204C554F4E47202020FD
:103EC00020202020200000002DE9F04140F61004C1
:103ED000C4F20104042040F228082060C2F2000865
:103EE000B8F80000002808BFBDE8F08100260827C8
:103EF0004FF4002530202760FEF712FE30202560A9
:103F0000FEF70EFEB8F8000001368642F2D3BDE897
:103F1000F081000040F20021C2F20001096848620D
:103F20007047000040F27011C2F200010968486257
:103F300070470000F0B581B000200021FEF726FF99
:103F400027A0FEF77DFF40F2000640F29007C2F284
:103F50000006C2F2000744F23464B26807F12D058E
:103F6000C0F6000428462146FCF748F92846FEF72B
:103F700067FF01200021FEF709FF1EA0FEF760FF8A
:103F8000F26807F1320528462146FCF737F9284642
:103F9000FEF756FF02200021FEF7F8FE1AA0FEF7FA
:103FA0004FFF326907F1370528462146FCF726F90D
:103FB0002846FEF745FF03200021FEF7E7FE17A085
:103FC000FEF73EFF726907F13C0528462146FCF7E3
:103FD00015F9284601B0BDE8F040FEF731BF00BF3B
:103FE000444B204C4F4920444159204449454E20E0
:103FF00000000000444F2044414920444159202002
:104000002020202000000000444F2044414920444B
:1040100041552054554F542000000000534F204C70
:10402000554F4E4720202020202020200000000057
:10403000F0B581B0044640F61005C4F20105042035
:1040400028606CB108264FF4002700BF30202E6096
:10405000FEF766FD30202F60FEF762FD013CF5D1D2
:1040600001B0F0BDF0B581B0044640F61005C4F2D1
:1040700001054FF48020286064B108264FF4002722
:1040800030202E60FEF74CFD30202F60FEF748FDFB
:10409000013CF5D101B0F0BD30380A2801D2012031
:1040A00070470020704770B5054600F097F9044648
:1040B0000146284600F0C2F915F0004F4FF07F414D
:1040C0000ED0B0F13F4F28BFB1EB400F0ED2B0F190
:1040D0007C5F1DDDB1EB400F1AD313E0044617E0FF
:1040E000B0F13F4F08D9B1EB400F05D34FF07E51EF
:1040F000204600F0A3F9F1E7B0F17C5F08DBB1EBFB
:10410000400F05D34FF07E51204600F005F8E5E75B
:10411000284664F31E0070BD90EA010F48BF81F08D
:10412000004100F19281421A3CBF801A89184FEA7F
:10413000D052A2EBD1534FF07F4C1CEA410F18BF75
:104140009CEA026F00F03B804FF0004C4CEA0020EC
:104150004CEA012121FA03FC10EB0C0C1ED202F1F7
:10416000FF325FEA1C2040EBC25038BF70471CF0A2
:104170007F0F4FEA400C18BFBCF17F4F38BF70472C
:10418000C3F12003994008BF20F00100BCF17F4F2C
:1041900038BF7047A0F1C04000F01BB94FEA3C00A7
:1041A000000A40EBC25028BF1CF0FF0F4FEA400C42
:1041B000E6D018BFBCF17F4F38BF7047EAE79CEAF2
:1041C000026F05D010EA5C0F08BF00F00040704796
:1041D00010B500F0B8F800BF64FBBE3E41000B0E06
:1041E000D3F19E0208D950F400034FEA032323FAC7
:1041F00002F048BF4042704710B500F0A4F800BF7D
:1042000049922480002070476FF0004282EA20002B
:104210007047000010F0004148BF4042B0FA80F300
:1042200010FA03F2C3F19D030BD051EAC35101EB25
:104230001220530638BF704700F1010008BF20F07C
:10424000010070474FF47F0C1CEAD0121EBF1CEA1D
:10425000D11392EA0C0F93EA0C0F00F0478090EA1A
:10426000010F48BF42F480724FF0004C4CEA00202E
:104270004CEA012102EB0302A0FB0113A2F50002AC
:10428000002918BF43F001035B0028BF4FEA330346
:1042900042EB22425FEA132C4CEBC2502EBFBCEB28
:1042A000436FB2F57C0F70474FEA036CBCF1004FCF
:1042B00008BF20F00100B2F57C0F38BF70470BD566
:1042C00082F0FF0212F5803FC8BF704700F1C04086
:1042D000D8BF00F00040704700F5000C5FEA4C0CBE
:1042E00048BF7047B0F1C04000F073B80CEAD1137A
:1042F00090EA010F48BF42F48072624538BF6345BF
:1043000004D280EA010000F00040704710B500F0D0
:104310001AF800BF8900013E00F007B800F009B8A4
:104320005FEA410C5FEA1C6C08D080EA010000F0F3
:1043300050B85FEA400C5FEA1C6CF6D14FF00040C9
:10434000A0F5800070470EF1020E2EF0030E5EF80D
:10435000044B244204D44FEA4102B2F17F4F11D8FA
:104360004FEA4003B3F17F4F0CD80ED14FEAD07C17
:104370000CEB4C0C0CF1020CB2F17F4F08BF4CEB74
:10438000D17C04E04FF0080C01E04FEAD17C0CEB4B
:104390004C0324FA03F404F00704B4F1040C06D22D
:1043A0000EEB840CBDE810404CF0010C6047DFE8D8
:1043B0000CF0070802024FF00040A0F5800010BD8D
:1043C0000846420018BFD2F1807288BF00F000405A
:1043D00010BDFF2141EAD050C00570475FEA400C94
:1043E0005FEA1C6CBCF17F0314D4D3F1170240F3D5
:1043F0001C804FF0010C0CFA02FCACF101030340ED
:1044000020EA0300B3EB5C0208BF10EA0C0F88BF80
:1044100060447047B3F1FF3F28BF5FEA002C00F013
:10442000004088BF40F07E507047BCF1FF0FB8BF1E
:10443000704710B5FFF787FF40DBB6BE90EA010F6B
:1044400048BF81F000413FF56EAE421A04D882F0B9
:104450000042A0EB020011444FEAD052A2EBD1532C
:104460004FF07F4C1CEA410F18BF9CEA026F4AD004
:104470004FF0004C4CEA00204CEA012121FA03FCE9
:10448000B0EB0C0C0FD412F0FE0F36D05FEA4C00EC
:104490001DD5001240EBC25038BF70471CF03F0FD3
:1044A00018BF70470BE05FEA1C20A2F1010240EB4D
:1044B000C25038BF70471CF07F0F18BF7047C3F160
:1044C0002003994014BF401E20F0010070474FEABE
:1044D0001223800808BF7047B0FA80FCA2EB0C02E0
:1044E000CCF1280C60FA0CF093EA122F04BF00EB19
:1044F000C25070474FEAC3707047130A5FEADC107E
:1045000008BF7047F6E79CEA026F04D010EA5C0F20
:1045100008BF0020704710B5FFF715FF40DFF63EDB
:1045200081F0004070470102000000000000000020
:104530000102030406070809000000000102030449
:1045400002030405060708090A0B0C0D0E0F1010D4
:1045500020534F204C554F4E472020202020202014
:10456000200020444F20444149204441592020202C
:104570002020200020203D3D3D3D3D3D3D3D3D3D39
:104580003D3D3D3D3D3D200020444B204C4F4920CA
:10459000444159204449454E200020444F20444185
:1045A00049204441552054554F5420002058454D32
:1045B0002054484F4E4720534F2044412043414907
:1045C000004445205448415920444F492054484F05
:1045D0004E4720534F00204341492044415420542A
:1045E000484F4E4720534F00204D415920434154DE
:1045F0002056412054554F542044415900444120F5
:10460000424154204D415900444120544154204DD1
:1046100041590042414E20434F204D554F4E2054AA
:104620004154204D415900204241542F54415420BF
:104630004D415900252E33640000000060460008FB
:1046400000000020300000005001000890460008E3
:104650003000002060080000700100080000000029
:10466000DC058E189001000001000000C800000069
:104670000A000000010000004992E441010000002E
:10468000100000000024F4000032000000000000D0
:04000005080000ED02
:00000001FF
